:10000000DEC0E0C2F7C0AFC2F5C0F4C0F3C0F2C0BA
:10001000F1C0F0C0EFC0EEC0EDC0ECC0EBC0EAC074
:10002000E9C0E8C0E7C04C4947485420434F4E540C
:10003000524F4C4C455200202020202020202020D0
:100040002020202020202000555354415749454E60
:10005000494120202020202000535445524F574131
:100060004E4941202020202020005553544157491B
:10007000454E4941202020202020005A454741522A
:10008000412020202020202020202000504F4D4FB4
:10009000432020202020202020202020002020205D
:1000A0002020202020202020202020202000555308
:1000B000544157204752414E494345202020004398
:1000C0005A4153552020202020202020202020008D
:1000D0005553544157204A41534E4F5343202020FB
:1000E00000444C4120435A41534F572020202020A8
:1000F00020005A414B52455320435A41535520202A
:100100002020002020203E3E313C3C20202020208A
:10011000202020005A414B52455320435A41535509
:1001200020202020002020203E3E323C3C20202069
:100130002020202020005A414B52455320435A4151
:10014000535520202020002020203E3E333C3C20E0
:1001500020202020202020004A41534E4F5343208E
:10016000444C41202020202000435A415355203E3A
:100170003E313C3C2020202020004A41534E4F532A
:100180004320444C41202020202000435A41535515
:10019000203E3E323C3C2020202020004A41534E4D
:1001A0004F534320444C41202020202000435A41FB
:1001B0005355203E3E333C3C20202020200011247B
:1001C0001FBECFE5D4E0DEBFCDBF11E0A0E6B0E0BA
:1001D000E6E7F9E102C005900D92AA3CB107D9F714
:1001E00011E0AAECB1E001C01D92AE3EB107E1F70B
:1001F00019D9BFCB05CF83B39A9902C091E001C052
:1002000092E0999B93E0989B94E083B38F708F303A
:1002100009F490E09093CB0108950895482F6AE087
:1002200051DB282F30E084E0220F331F8A95E1F75D
:10023000842F48DB892F822B0895282F22952F7039
:100240009AE0299F900111248F70820F08952091C8
:10025000D5013091DB01321708F43FC08091D30102
:10026000281720F48091D301831758F18091D3018E
:10027000821781F48091D301831761F49091E90191
:100280008091ED01981730F09091E9018091DC01A7
:100290009817B8F0231709F447C08091D30182174B
:1002A00031F49091E9018091ED01981750F480911B
:1002B000D3018317C9F59091E9018091DC0198176A
:1002C00098F58091D7012FEF30E0281B31093BBD15
:1002D0002ABD81E08093D00108958091D301281731
:1002E000C0F08091D301821731F49091E90180919F
:1002F000ED01981770F48091D301831750F080912D
:10030000D301831789F49091E9018091DC0198175A
:1003100058F48091D7012FEF30E0281B31093BBD05
:100320002ABD81E08093D00108952091E4013091AD
:10033000E101321708F43FC08091D301281720F45F
:100340008091D301831758F18091D301821781F4F2
:100350008091D301831761F49091E9018091E501C7
:10036000981730F09091E9018091EC019817B8F05E
:10037000231709F447C08091D301821731F490917B
:10038000E9018091E501981750F48091D30183171A
:10039000C9F59091E9018091EC01981798F5809149
:1003A000E6012FEF30E0281B31093BBD2ABD82E07A
:1003B0008093D00108958091D3012817C0F08091D7
:1003C000D301821731F49091E9018091E5019817EA
:1003D00070F48091D301831750F08091D30183177B
:1003E00089F49091E9018091EC01981758F480917B
:1003F000E6012FEF30E0281B31093BBD2ABD82E02A
:100400008093D00108952091D6013091D9013217FF
:1004100008F43FC08091D301281720F48091D301C4
:10042000831758F18091D301821781F48091D30111
:10043000831761F49091E9018091D801981730F009
:100440009091E9018091DA019817B8F0231709F427
:1004500047C08091D301821731F49091E9018091D6
:10046000D801981750F48091D3018317C9F5909162
:10047000E9018091DA01981798F58091EB012FEF4F
:1004800030E0281B31093BBD2ABD83E08093D001B9
:1004900008958091D3012817C0F08091D30182176D
:1004A00031F49091E9018091D801981770F480910E
:1004B000D301831750F08091D301831789F4909171
:1004C000E9018091DA01981758F48091EB012FEF40
:1004D00030E0281B31093BBD2ABD83E08093D00169
:1004E00008958091D501882381F58091DB018823CF
:1004F00061F58091ED01882341F58091DC0188232D
:1005000021F58091E401882301F58091E1018823A0
:10051000E1F48091E5018823C1F48091EC01882306
:10052000A1F48091D601882381F48091D901882398
:1005300061F48091D801882341F48091DA01882305
:1005400021F48FEF90E09BBD8ABD8091D001815056
:10055000833020F08FEF90E09BBD8ABD089577DE59
:10056000E4DE51DF08951F920F920FB60F9211240F
:100570008F939F938091E7019091E801009729F074
:1005800001979093E8018093E7018091E2019091B7
:10059000E301009729F001979093E3018093E20132
:1005A0008091D1019091D201009729F00197909309
:1005B000D2018093D1019F918F910F900FBE0F9028
:1005C0001F9018951F920F920FB60F9211242F9320
:1005D0003F934F935F936F937F938F939F93AF93CB
:1005E000BF93EF93FF9380EA61E044E02DED31E0AB
:1005F0002FD92091DE01822F82958F703AE0839F60
:10060000C00111242F70280F2093D4012091DF0105
:10061000822F82958F70839FC00111242F70280F25
:100620002093E9012091E001822F82958F70839FB2
:10063000C00111242F70280F2093D301FF91EF9157
:10064000BF91AF919F918F917F916F915F914F91EA
:100650003F912F910F900FBE0F901F901895CF9341
:10066000DF938091D1019091D201892B09F085C04F
:1006700084E690E09093D2018093D1018091CA01E9
:100680002091CB0190E0CBE0D0E08C9FF0018D9FDA
:10069000F00D9C9FF00D1124E20FF11DE750FF4F6C
:1006A00080818093CA018091CA0190E08C9FF00103
:1006B0008D9FF00D9C9FF00D1124E750FF4F878117
:1006C0009085892B91F080E060E0CED78091CA01BF
:1006D00090E08C9FF0018D9FF00D9C9FF00D1124F8
:1006E000E750FF4F8781908576D78091CA0190E0CF
:1006F000CBE0D0E08C9FF0018D9FF00D9C9FF00D22
:100700001124E750FF4F81859285892B91F081E07C
:1007100060E0AAD78091CA0190E08C9FF0018D9F84
:10072000F00D9C9FF00D1124E750FF4F81859285BD
:1007300052D78091CA0190E04BE050E0849FF001D5
:10074000859FF00D949FF00D1124E750FF4F858198
:100750009681892B91F02091CA018091CB0130E0E4
:10076000249FF001259FF00D349FF00D1124E750D8
:10077000FF4F0580F681E02D0995DF91CF91089517
:100780003ADD8091E2019091E301892B51F48AE0F6
:1007900090E09093E3018093E2018091CB0181117D
:1007A0005EDF089580E060E05FD78091CA0190E04D
:1007B0002BE030E0829FF001839FF00D929FF00DBF
:1007C0001124E750FF4F8781908505D781E060E0D5
:1007D0004BD780E690E0EED681E06CE045D780E62E
:1007E00090E0E8D681E064E03FD78091D3018A3081
:1007F00018F485E690E0DED68091D30190E0BCD776
:1008000087E690E0D7D68091E9018A3018F485E632
:1008100090E0D0D68091E90190E0AED787E690E0F5
:10082000C9D68091D4018A3018F485E690E0C2D60A
:100830008091D40190E0A0D781E06CE015D789E6E3
:1008400090E0B8D608950F931F93DF93CF9300D015
:1008500000D0CDB7DEB7082F162F842F1982DEDC2B
:100860008A83812FDBDC8B83802FD8DC8C8380EA2A
:1008700061E044E09E012F5F3F4FC4D70F900F907F
:100880000F900F90CF91DF911F910F910895BF921C
:10089000CF92DF92EF92FF920F931F93E090D301DC
:1008A000F090E90181E08093CC01E5D610E0BB2413
:1008B000CC24DD2400E0CFC080E060E0D5D68BE61C
:1008C00090E078D681E064E0CFD687E690E072D6FB
:1008D00081E069E0C9D687E690E06CD6112349F43F
:1008E00081E060E0C1D68CE790E064D681E063E00F
:1008F00015C0113049F481E065E0B6D68CE790E090
:1009000059D681E068E00AC0123061F481E06AE003
:10091000ABD68CE790E04ED681E06DE0A5D68EE7B1
:1009200090E048D689E08E1548F081E061E09CD6E1
:1009300080E090E021D781E062E002C081E061E0E8
:1009400093D68E2D90E018D789E08F1548F081E07E
:1009500066E08AD680E090E00FD781E067E002C0D1
:1009600081E066E081D68F2D90E006D70A3048F40A
:1009700081E06BE079D680E090E0FED681E06CE02B
:1009800002C081E06BE070D6802F90E0F5D69A9996
:1009900021C0BB2001F5112311F43EEFB32E812FAE
:1009A0008150823010F4BB24BA94113051F01130D0
:1009B00018F0123089F40AC086E18E1568F0E394CD
:1009C0000BC08AE38F1540F0F39406C00B3320F47C
:1009D0000F5F02C0B110B3949B991FC0CC20F1F4FB
:1009E000112311F42EEFC22E812F8150823010F48A
:1009F000CC24CA94113049F0113018F0123079F437
:100A000008C0EE2061F0EA940AC0FF2041F0FA9499
:100A100006C0002321F0015002C0C110C39499996F
:100A200012C0DD2081F48091CC01882361F423D6AB
:100A30001F5F8E2D6F2D402F06DF133008F010E062
:100A40009EEFD92E04C0999B02C0D110D394999BDC
:100A500002C01092CC0198992FCF1F910F91FF9057
:100A6000EF90DF90CF90BF900895AF92BF92CF925A
:100A7000DF92EF92FF920F931F93D090D601E090F8
:100A8000D801F090D9010091DA0181E08093CD0185
:100A9000F2D510E0BB24CC24AA24FCC080E060E0A6
:100AA000E3D580E890E086D581E063E0DDD587E698
:100AB00090E080D581E067E0D7D580E990E07AD5F5
:100AC00081E06BE0D1D587E690E074D5112319F46D
:100AD00081E060E009C0113019F481E066E00CC0EB
:100AE000123031F481E068E0BFD58CE790E007C0B8
:100AF000133031F481E06EE0B7D58EE790E05AD53F
:100B000089E08D1548F081E061E0AED580E090E0AD
:100B100033D681E062E002C081E061E0A5D58D2D91
:100B200090E02AD689E08E1548F081E064E09CD5FB
:100B300080E090E021D681E065E002C081E064E0E1
:100B400093D58E2D90E018D689E08F1548F081E07E
:100B500069E08AD580E090E00FD681E06AE002C0CB
:100B600081E069E081D58F2D90E006D60A3048F407
:100B700081E06CE079D580E090E0FED581E06DE029
:100B800002C081E06CE070D5802F90E0F5D59A9995
:100B90002FC0BB2071F5112319F4EEEFBE2E0FC04C
:100BA0001230C9F0113081F01330E1F0113071F0E2
:100BB000113028F0123089F01330E1F415C086E1CD
:100BC0008D15C0F0D39416C0BB24BA948AE38E1559
:100BD00088F0E3940FC07EEFB72E86E18F1550F0BA
:100BE000F39408C0BB24BA940B3320F40F5F02C007
:100BF000B110B3949B992CC0CC2059F5112319F452
:100C00006EEFC62E0FC01230B9F0113079F01330EC
:100C1000C9F0113069F0113028F0123079F013303A
:100C2000C9F412C0DD20B1F0DA9414C0CC24CA9407
:100C3000EE2081F0EA940EC05EEFC52EFF2051F049
:100C4000FA9408C0CC24CA94002321F0015002C0B9
:100C5000C110C394999916C0AA20A1F48091CD0126
:100C6000882381F408D51F5FD092D601E092D80185
:100C7000F092D9010093DA01143008F010E04EEF41
:100C8000A42E04C0999B02C0A110A394999B02C0FA
:100C90001092CD01989902CF1F910F91FF90EF9084
:100CA000DF90CF90BF90AF900895AF92BF92CF9258
:100CB000DF92EF92FF920F931F93D090E401E090A8
:100CC000E501F090E1010091EC0181E08093CE011B
:100CD000D2D410E0BB24AA24CC24FCC080E060E085
:100CE000C3D482E990E066D481E063E0BDD487E6B6
:100CF00090E060D481E067E0B7D480E990E05AD416
:100D000081E06BE0B1D487E690E054D4112319F46C
:100D100081E060E009C0113019F481E066E00CC0A8
:100D2000123031F481E068E09FD48CE790E007C096
:100D3000133031F481E06EE097D48EE790E03AD43E
:100D400089E08D1548F081E061E08ED480E090E08C
:100D500013D581E062E002C081E061E085D48D2D91
:100D600090E00AD589E08E1548F081E064E07CD4FB
:100D700080E090E001D581E065E002C081E064E0C0
:100D800073D48E2D90E0F8D489E08F1548F081E07F
:100D900069E06AD480E090E0EFD481E06AE002C0CC
:100DA00081E069E061D48F2D90E0E6D40A3048F408
:100DB00081E06CE059D480E090E0DED481E06DE029
:100DC00002C081E06CE050D4802F90E0D5D49A9995
:100DD0002FC0CC2071F5112319F49EEFC92E0FC03E
:100DE0001230C9F0113081F01330E1F0113071F0A0
:100DF000113028F0123089F01330E1F415C086E18B
:100E00008D15C0F0D39416C0CC24CA948AE38E15F5
:100E100088F0E3940FC08EEFC82E86E18F1550F056
:100E2000F39408C0CC24CA940B3320F40F5F02C0A3
:100E3000C110C3949B992CC0BB2059F5112319F400
:100E4000BEEFBB2E0FC01230B9F0113079F0133065
:100E5000C9F0113069F0113028F0123079F01330F8
:100E6000C9F412C0DD20B1F0DA9414C0BB24BA94E6
:100E7000EE2081F0EA940EC0AEEFBA2EFF2051F0C2
:100E8000FA9408C0BB24BA94002321F0015002C098
:100E9000B110B394999916C0AA20A1F48091CE0103
:100EA000882381F4E8D31F5FD092E401E092E5014A
:100EB000F092E1010093EC01143008F010E0FEEF35
:100EC000AF2E04C0999B02C0A110A394999B02C0AD
:100ED0001092CE01989902CF1F910F91FF90EF9041
:100EE000DF90CF90BF90AF900895AF92BF92CF9216
:100EF000DF92EF92FF920F931F93D090D501E09075
:100F0000ED01F090DB010091DC0181E08093CF01E5
:100F1000B2D310E0BB24CC24AA24FCC080E060E063
:100F2000A3D382EA90E046D381E063E09DD387E6D5
:100F300090E040D381E067E097D380E990E03AD336
:100F400081E06BE091D387E690E034D3112319F46C
:100F500081E060E009C0113019F481E066E00CC066
:100F6000123031F481E068E07FD38CE790E007C075
:100F7000133031F481E06EE077D38EE790E01AD33E
:100F800089E08D1548F081E061E06ED380E090E06B
:100F9000F3D381E062E002C081E061E065D38D2D92
:100FA00090E0EAD389E08E1548F081E064E05CD3FC
:100FB00080E090E0E1D381E065E002C081E064E0A0
:100FC00053D38E2D90E0D8D389E08F1548F081E07F
:100FD00069E04AD380E090E0CFD381E06AE002C0CC
:100FE00081E069E041D38F2D90E0C6D30A3048F408
:100FF00081E06CE039D380E090E0BED381E06DE029
:1010000002C081E06CE030D3802F90E0B5D39A9994
:101010002FC0BB2071F5112319F46EEFB62E0FC04F
:101020001230C9F0113081F01330E1F0113071F05D
:10103000113028F0123089F01330E1F415C086E148
:101040008D15C0F0D39416C0BB24BA948AE38E15D4
:1010500088F0E3940FC05EEFB52E86E18F1550F057
:10106000F39408C0BB24BA940B3320F40F5F02C082
:10107000B110B3949B992CC0CC2059F5112319F4CD
:101080004EEFC42E0FC01230B9F0113079F013308A
:10109000C9F0113069F0113028F0123079F01330B6
:1010A000C9F412C0DD20B1F0DA9414C0CC24CA9483
:1010B000EE2081F0EA940EC03EEFC32EFF2051F0E7
:1010C000FA9408C0CC24CA94002321F0015002C035
:1010D000C110C394999916C0AA20A1F48091CF01A0
:1010E000882381F4C8D21F5FD092D501E092ED0130
:1010F000F092DB010093DC01143008F010E02EEFD9
:10110000A22E04C0999B02C0A110A394999B02C077
:101110001092CF01989902CF1F910F91FF90EF90FD
:10112000DF90CF90BF90AF900895FF920F931F93E1
:10113000CF93DF931091EB019ED2FF2400E0CFEF1D
:10114000D0E06AC080E060E08FD282EB90E032D2E3
:1011500081E068E089D283EC90E02CD2143638F537
:101160001A3060F081E060E07FD285E690E022D224
:1011700081E061E079D2812F90E0FED2812F815011
:10118000893060F481E060E06FD28BEC90E012D2A5
:1011900081E062E069D2812F90E0EED2112369F400
:1011A00081E060E061D28EEC90E004D206C081E084
:1011B00060E05AD2812F90E0DFD28091EB011817C6
:1011C00031F081E063E050D282ED90E005C081E033
:1011D00063E04AD289E690E0EDD19A9908C0FF20F9
:1011E00039F41F3F09F01B5FFF24FA9402C0F1108D
:1011F000F3949B9906C0002329F4111115500FEFA9
:1012000002C001110F5FCE01811B91099BBD8ABDF8
:10121000999902C01093EB01989994CFDF91CF91E7
:101220001F910F91FF900895FF920F931F93CF93FB
:10123000DF931091E6011FD2FF2400E0CFEFD0E052
:101240006AC080E060E010D284ED90E0B3D181E02C
:1012500068E00AD283EC90E0ADD1143638F51A304C
:1012600060F081E060E000D285E690E0A3D181E00B
:1012700061E0FAD1812F90E07FD2812F81508930B7
:1012800060F481E060E0F0D18BEC90E093D181E0FC
:1012900062E0EAD1812F90E06FD2112369F481E0FE
:1012A00060E0E2D18EEC90E085D106C081E060E0A4
:1012B000DBD1812F90E060D28091E601181731F0E8
:1012C00081E063E0D1D182ED90E005C081E063E090
:1012D000CBD189E690E06ED19A9907C0002331F412
:1012E0001F3F09F01B5F0FEF02C001110F5F9B99B9
:1012F00007C0FF2031F411111550FF24FA9402C0E9
:10130000F110F394CE01811B91099BBD8ABD99997F
:1013100002C01093E601989994CFDF91CF911F916D
:101320000F91FF900895FF920F931F93CF93DF9338
:101330001091D701A0D1FF2400E0CFEFD0E06AC028
:1013400080E060E091D185EE90E034D181E068E00A
:101350008BD183EC90E02ED1143638F51A3060F042
:1013600081E060E081D185E690E024D181E061E018
:101370007BD1812F90E000D2812F8150893060F4A1
:1013800081E060E071D18BEC90E014D181E062E00B
:101390006BD1812F90E0F0D1112369F481E060E0FE
:1013A00063D18EEC90E006D106C081E060E05CD1B4
:1013B000812F90E0E1D18091D701181731F081E0C1
:1013C00063E052D182ED90E005C081E063E04CD152
:1013D00089E690E0EFD09A9908C0FF2039F41F3FCA
:1013E00009F01B5FFF24FA9402C0F110F3949B995B
:1013F00006C0002329F4111115500FEF02C001118E
:101400000F5FCE01811B91099BBD8ABD999902C0D6
:101410001093D701989994CFDF91CF911F910F919D
:10142000FF90089584E690E0C1D11092D701109208
:10143000E6011092EB0184B3807F84BB85B38F609B
:1014400085BB88E085BD85E085BD8CE683BD80E8F1
:1014500089BF85B7826085BF8BB780648BBF929A46
:10146000B99A8FB581608FBD8EB588608EBD8FB5FE
:10147000806A8FBD8EB583608EBD8FEF90E09BBD7F
:101480008ABD0BD11092CB01EAD8789480EA61E052
:1014900044E02DED31E0DCD12091DE01822F8295F8
:1014A0008F703AE0839FC00111242F70280F209382
:1014B000D4012091DF01822F82958F70839FC0011C
:1014C00011242F70280F2093E9012091E001822F31
:1014D00082958F70839FC00111242F70280F209355
:1014E000D3011092D0014CD98091CA018823D9F739
:1014F00059D9F7D71092D00132D8F5CF80FF02C06A
:10150000949A01C0949881FF02C0959A01C0959861
:1015100082FF02C0969A01C0969883FF02C0979AF4
:1015200008959798089580B390E024E09695879564
:101530002A95E1F781708599826086998460879900
:10154000886008951F938F988E988D988C98919AA3
:10155000929AE9DF182F1295107F9298929AE3DF02
:101560009298812B1F9108959098ECDF08951F9316
:10157000182F8F9A8E9A8D9A8C9A9198929A82951A
:101580008F70BCDF9298929A812FB8DF9298ECDF2F
:1015900087FDFDCF1F9108959098E9DF0895909AF7
:1015A000E6DF0895982F8058883008F49770892FC7
:1015B000F6DF0895CF93DF93EC0107C0892F8058A1
:1015C000883008F49770892FEADF99919923B1F751
:1015D000DF91CF910895CF93DF93EC0109C0892F5C
:1015E0008058883010F0892F02C0892F8770D7DF8C
:1015F000FE0121969491992391F7DF91CF9108955F
:101600001F93CF93DF93EB0190E087709070089663
:10161000880F880F880FC0DF10E08991C0DF1F5F3F
:101620001830D9F7DF91CF911F9108950F931F9331
:10163000CF93DF938B0190E0877090700896880FAE
:10164000880F880FA9DFC0E0D0E0F801EC0FFD1F84
:10165000E4918E2FA4DF2196C830D105B1F7DF9138
:10166000CF911F910F910895813009F480E4605863
:10167000860F92DF089581E08FDF089583E08CDF8D
:1016800008958EE089DF08958CE086DF08958FE06D
:1016900083DF08958CE080DF08950F931F938F9A66
:1016A0008E9A8D9A8C9A889A8A9A899A909A929A06
:1016B000919A80E395E70197F1F792989098919825
:1016C000929A83E01BDF929888E090E20197F1F70D
:1016D000929A83E013DF929808EC10E0C80101971A
:1016E000F1F7929A83E00ADF9298C8010197F1F727
:1016F000929A82E003DF9298C8010197F1F788E29D
:101700004BDF88E049DF8CE047DF86E045DFB3DF71
:101710001F910F9108950F931F93CF93DF938B0128
:1017200090E0877090700896880F880F880F34DFDC
:10173000C0E0D0E0C8018C0F9D1F03D130DF21969F
:10174000C830D105B9F7DF91CF911F910F9108955E
:10175000CF93DF93EC012196F4D0982F81508E3FE8
:1017600040F48F57883008F49770892F18DFCE0126
:10177000F1CFDF91CF910895DF93CF93CDB7DEB74F
:1017800061970FB6F894DEBF0FBECDBFBE016F5F8D
:101790007F4F4AE050E0B6D00DDF61960FB6F89467
:1017A000DEBF0FBECDBFCF91DF910895BC0180E4B5
:1017B0009FE194D0603130F0862F90E0409795956E
:1017C0008795682F60B9089584EA86BF06B607FE3C
:1017D000FDCF089584E986BF06B604FEFDCF0895C7
:1017E00083B984E886BF06B607FEFDCF08958295CB
:1017F000880F880F807C846886BF06B607FEFDCF01
:1018000083B10895982FF90184EA86BF06B607FED2
:10181000FDCF93B984E886BF06B607FEFDCF63B956
:1018200084E886BF06B607FEFDCF09C0808183B974
:1018300096BF06B607FEFDCF3196415001C094E831
:101840004423A1F784E986BF06B604FEFDCF0895C0
:10185000982FF90184EA86BF06B607FEFDCF93B93B
:1018600084E886BF06B607FEFDCF63B984E886BF6D
:1018700006B607FEFDCF84EA86BF06B607FEFDCF9B
:101880009F5F93B984E886BF06B607FEFDCF12C0FE
:10189000415080E090E011F081E090E036E0880F68
:1018A000991F3A95E1F7846886BF06B607FEFDCF1B
:1018B00083B18193442361F784E986BF06B604FEB1
:1018C000FDCF0895991B79E004C0991F961708F081
:1018D000961B881F7A95C9F780950895AA1BBB1B94
:1018E00051E107C0AA1FBB1FA617B70710F0A61B20
:1018F000B70B881F991F5A95A9F780959095BC0141
:10190000CD010895FB019F01E8944230BCF04532BF
:10191000ACF44A3029F497FB1EF4909581959F4FC3
:10192000642F7727DBDF805D8A330CF0895D81933C
:10193000CB010097A9F716F45DE251931082C9011B
:1019400008C0E199FECF9FBB8EBBE09A99278DB36B
:101950000895DC01FC01672F71917723E1F732973D
:1019600004C07C916D9370836291AE17BF07C8F37A
:061970000895F894FFCF7A
:10197600202020200030003A002000557374617743
:1019860020676F647A696E65202020003E003C0067
:101996005A616B7233206F642E2E2E646F202000E6
:1019A6007C005A616B7232206F642E2E2E646F207B
:1019B60020005A616B7231206F642E2E2E646F20C8
:1019C60020004A61736E6F736320637A61732033FC
:1019D60020200028302D32353529003030004F4682
:1019E600460021004A61736E6F736320637A6173E8
:1019F60020322020004A61736E6F736320637A6120
:101A060073203120200001FFFE00000100000000CD
:101A160026000000000102040000004800590000F2
:101A26000103120000006A007B00000203030000AD
:101A3600008C009D0000040506010000AE00BF00FA
:101A460000040509010000D000E1000006070C04AF
:101A56000000F20003010006080D04000014012531
:101A6600010007080E0400003601470100090A0FAD
:101A76000500005801690100090B100500007A01F4
:101A86008B01000A0B110500009C01AD0100040446
:101A9600040675070000000000040404075506004C
:101AA60000000000040404083505000000000005DD
:101AB6000509099309000000000005050A0A140932
:101AC600000000000005050B0B9508000000000053
:0A1AD60002020202470400000000B3
:00000001FF
